{
  "_format": "hh-sol-artifact-1",
  "contractName": "TrustScoreRegistry",
  "sourceName": "contracts/TrustScoreRegistry.sol",
  "abi": [
    {
      "inputs": [
        {
          "internalType": "address",
          "name": "initialOwner",
          "type": "address"
        }
      ],
      "stateMutability": "nonpayable",
      "type": "constructor"
    },
    {
      "anonymous": false,
      "inputs": [
        {
          "indexed": true,
          "internalType": "address",
          "name": "wallet",
          "type": "address"
        },
        {
          "indexed": false,
          "internalType": "string",
          "name": "badgeId",
          "type": "string"
        },
        {
          "indexed": false,
          "internalType": "string",
          "name": "name",
          "type": "string"
        },
        {
          "indexed": false,
          "internalType": "string",
          "name": "tier",
          "type": "string"
        },
        {
          "indexed": false,
          "internalType": "uint256",
          "name": "timestamp",
          "type": "uint256"
        }
      ],
      "name": "BadgeAwarded",
      "type": "event"
    },
    {
      "anonymous": false,
      "inputs": [
        {
          "indexed": true,
          "internalType": "address",
          "name": "wallet",
          "type": "address"
        },
        {
          "indexed": false,
          "internalType": "string",
          "name": "badgeId",
          "type": "string"
        },
        {
          "indexed": false,
          "internalType": "uint256",
          "name": "timestamp",
          "type": "uint256"
        }
      ],
      "name": "BadgeRevoked",
      "type": "event"
    },
    {
      "anonymous": false,
      "inputs": [
        {
          "indexed": false,
          "internalType": "string",
          "name": "badgeId",
          "type": "string"
        },
        {
          "indexed": false,
          "internalType": "string",
          "name": "name",
          "type": "string"
        }
      ],
      "name": "BadgeTypeRegistered",
      "type": "event"
    },
    {
      "anonymous": false,
      "inputs": [
        {
          "indexed": true,
          "internalType": "address",
          "name": "issuer",
          "type": "address"
        }
      ],
      "name": "IssuerAuthorized",
      "type": "event"
    },
    {
      "anonymous": false,
      "inputs": [
        {
          "indexed": true,
          "internalType": "address",
          "name": "issuer",
          "type": "address"
        }
      ],
      "name": "IssuerRevoked",
      "type": "event"
    },
    {
      "anonymous": false,
      "inputs": [
        {
          "indexed": true,
          "internalType": "address",
          "name": "wallet",
          "type": "address"
        },
        {
          "indexed": false,
          "internalType": "uint256",
          "name": "score",
          "type": "uint256"
        },
        {
          "indexed": false,
          "internalType": "string",
          "name": "riskLevel",
          "type": "string"
        },
        {
          "indexed": true,
          "internalType": "address",
          "name": "issuer",
          "type": "address"
        },
        {
          "indexed": false,
          "internalType": "uint256",
          "name": "timestamp",
          "type": "uint256"
        }
      ],
      "name": "ScoreUpdated",
      "type": "event"
    },
    {
      "inputs": [],
      "name": "VERSION",
      "outputs": [
        {
          "internalType": "string",
          "name": "",
          "type": "string"
        }
      ],
      "stateMutability": "view",
      "type": "function"
    },
    {
      "inputs": [
        {
          "internalType": "address",
          "name": "issuer",
          "type": "address"
        }
      ],
      "name": "authorizeIssuer",
      "outputs": [],
      "stateMutability": "nonpayable",
      "type": "function"
    },
    {
      "inputs": [
        {
          "internalType": "address",
          "name": "",
          "type": "address"
        }
      ],
      "name": "authorizedIssuers",
      "outputs": [
        {
          "internalType": "bool",
          "name": "",
          "type": "bool"
        }
      ],
      "stateMutability": "view",
      "type": "function"
    },
    {
      "inputs": [
        {
          "internalType": "address",
          "name": "wallet",
          "type": "address"
        },
        {
          "internalType": "string",
          "name": "badgeId",
          "type": "string"
        },
        {
          "internalType": "string",
          "name": "name",
          "type": "string"
        },
        {
          "internalType": "string",
          "name": "tier",
          "type": "string"
        }
      ],
      "name": "awardBadge",
      "outputs": [],
      "stateMutability": "nonpayable",
      "type": "function"
    },
    {
      "inputs": [
        {
          "internalType": "uint256",
          "name": "",
          "type": "uint256"
        }
      ],
      "name": "badgeIds",
      "outputs": [
        {
          "internalType": "string",
          "name": "",
          "type": "string"
        }
      ],
      "stateMutability": "view",
      "type": "function"
    },
    {
      "inputs": [
        {
          "internalType": "address",
          "name": "",
          "type": "address"
        },
        {
          "internalType": "string",
          "name": "",
          "type": "string"
        }
      ],
      "name": "badges",
      "outputs": [
        {
          "internalType": "string",
          "name": "badgeId",
          "type": "string"
        },
        {
          "internalType": "string",
          "name": "name",
          "type": "string"
        },
        {
          "internalType": "string",
          "name": "tier",
          "type": "string"
        },
        {
          "internalType": "bool",
          "name": "earned",
          "type": "bool"
        },
        {
          "internalType": "uint256",
          "name": "timestamp",
          "type": "uint256"
        }
      ],
      "stateMutability": "view",
      "type": "function"
    },
    {
      "inputs": [
        {
          "internalType": "address",
          "name": "wallet",
          "type": "address"
        },
        {
          "internalType": "string",
          "name": "badgeId",
          "type": "string"
        }
      ],
      "name": "getBadge",
      "outputs": [
        {
          "components": [
            {
              "internalType": "string",
              "name": "badgeId",
              "type": "string"
            },
            {
              "internalType": "string",
              "name": "name",
              "type": "string"
            },
            {
              "internalType": "string",
              "name": "tier",
              "type": "string"
            },
            {
              "internalType": "bool",
              "name": "earned",
              "type": "bool"
            },
            {
              "internalType": "uint256",
              "name": "timestamp",
              "type": "uint256"
            }
          ],
          "internalType": "struct TrustScoreRegistry.Badge",
          "name": "",
          "type": "tuple"
        }
      ],
      "stateMutability": "view",
      "type": "function"
    },
    {
      "inputs": [],
      "name": "getBadgeIds",
      "outputs": [
        {
          "internalType": "string[]",
          "name": "",
          "type": "string[]"
        }
      ],
      "stateMutability": "view",
      "type": "function"
    },
    {
      "inputs": [
        {
          "internalType": "address",
          "name": "wallet",
          "type": "address"
        }
      ],
      "name": "getFullScore",
      "outputs": [
        {
          "components": [
            {
              "internalType": "uint256",
              "name": "score",
              "type": "uint256"
            },
            {
              "internalType": "string",
              "name": "riskLevel",
              "type": "string"
            },
            {
              "internalType": "address",
              "name": "issuer",
              "type": "address"
            },
            {
              "internalType": "uint256",
              "name": "timestamp",
              "type": "uint256"
            },
            {
              "internalType": "string",
              "name": "metadataURI",
              "type": "string"
            }
          ],
          "internalType": "struct TrustScoreRegistry.TrustScore",
          "name": "",
          "type": "tuple"
        }
      ],
      "stateMutability": "view",
      "type": "function"
    },
    {
      "inputs": [
        {
          "internalType": "address",
          "name": "wallet",
          "type": "address"
        }
      ],
      "name": "getScore",
      "outputs": [
        {
          "internalType": "uint256",
          "name": "",
          "type": "uint256"
        }
      ],
      "stateMutability": "view",
      "type": "function"
    },
    {
      "inputs": [
        {
          "internalType": "address",
          "name": "wallet",
          "type": "address"
        },
        {
          "internalType": "string",
          "name": "badgeId",
          "type": "string"
        }
      ],
      "name": "hasBadge",
      "outputs": [
        {
          "internalType": "bool",
          "name": "",
          "type": "bool"
        }
      ],
      "stateMutability": "view",
      "type": "function"
    },
    {
      "inputs": [
        {
          "internalType": "address",
          "name": "issuer",
          "type": "address"
        }
      ],
      "name": "isAuthorizedIssuer",
      "outputs": [
        {
          "internalType": "bool",
          "name": "",
          "type": "bool"
        }
      ],
      "stateMutability": "view",
      "type": "function"
    },
    {
      "inputs": [],
      "name": "owner",
      "outputs": [
        {
          "internalType": "address",
          "name": "",
          "type": "address"
        }
      ],
      "stateMutability": "view",
      "type": "function"
    },
    {
      "inputs": [
        {
          "internalType": "string",
          "name": "badgeId",
          "type": "string"
        },
        {
          "internalType": "string",
          "name": "name",
          "type": "string"
        }
      ],
      "name": "registerBadgeType",
      "outputs": [],
      "stateMutability": "nonpayable",
      "type": "function"
    },
    {
      "inputs": [
        {
          "internalType": "string",
          "name": "",
          "type": "string"
        }
      ],
      "name": "registeredBadgeIds",
      "outputs": [
        {
          "internalType": "bool",
          "name": "",
          "type": "bool"
        }
      ],
      "stateMutability": "view",
      "type": "function"
    },
    {
      "inputs": [
        {
          "internalType": "address",
          "name": "wallet",
          "type": "address"
        },
        {
          "internalType": "string",
          "name": "badgeId",
          "type": "string"
        }
      ],
      "name": "revokeBadge",
      "outputs": [],
      "stateMutability": "nonpayable",
      "type": "function"
    },
    {
      "inputs": [
        {
          "internalType": "address",
          "name": "issuer",
          "type": "address"
        }
      ],
      "name": "revokeIssuer",
      "outputs": [],
      "stateMutability": "nonpayable",
      "type": "function"
    },
    {
      "inputs": [],
      "name": "totalWalletsScored",
      "outputs": [
        {
          "internalType": "uint256",
          "name": "",
          "type": "uint256"
        }
      ],
      "stateMutability": "view",
      "type": "function"
    },
    {
      "inputs": [
        {
          "internalType": "address",
          "name": "newOwner",
          "type": "address"
        }
      ],
      "name": "transferOwnership",
      "outputs": [],
      "stateMutability": "nonpayable",
      "type": "function"
    },
    {
      "inputs": [
        {
          "internalType": "address",
          "name": "",
          "type": "address"
        }
      ],
      "name": "trustScores",
      "outputs": [
        {
          "internalType": "uint256",
          "name": "score",
          "type": "uint256"
        },
        {
          "internalType": "string",
          "name": "riskLevel",
          "type": "string"
        },
        {
          "internalType": "address",
          "name": "issuer",
          "type": "address"
        },
        {
          "internalType": "uint256",
          "name": "timestamp",
          "type": "uint256"
        },
        {
          "internalType": "string",
          "name": "metadataURI",
          "type": "string"
        }
      ],
      "stateMutability": "view",
      "type": "function"
    },
    {
      "inputs": [
        {
          "internalType": "address",
          "name": "wallet",
          "type": "address"
        },
        {
          "internalType": "uint256",
          "name": "score",
          "type": "uint256"
        },
        {
          "internalType": "string",
          "name": "riskLevel",
          "type": "string"
        },
        {
          "internalType": "string",
          "name": "metadataURI",
          "type": "string"
        }
      ],
      "name": "updateScore",
      "outputs": [],
      "stateMutability": "nonpayable",
      "type": "function"
    }
  ],
  "bytecode": "0x60806040523480156200001157600080fd5b50604051620040e1380380620040e18339818101604052810190620000379190620005f8565b600073ffffffffffffffffffffffffffffffffffffffff168173ffffffffffffffffffffffffffffffffffffffff1603620000a9576040517f08c379a0000000000000000000000000000000000000000000000000000000008152600401620000a090620006b1565b60405180910390fd5b806000806101000a81548173ffffffffffffffffffffffffffffffffffffffff021916908373ffffffffffffffffffffffffffffffffffffffff16021790555060018060008373ffffffffffffffffffffffffffffffffffffffff1673ffffffffffffffffffffffffffffffffffffffff16815260200190815260200160002060006101000a81548160ff021916908315150217905550620001bc6040518060400160405280601081526020017f76657269666965645f6275696c646572000000000000000000000000000000008152506040518060400160405280601081526020017f5665726966696564204275696c64657200000000000000000000000000000000815250620004ab60201b60201c565b620002386040518060400160405280600f81526020017f6f706e5f7061727469636970616e7400000000000000000000000000000000008152506040518060400160405280600f81526020017f4f504e205061727469636970616e740000000000000000000000000000000000815250620004ab60201b60201c565b620002b46040518060400160405280600b81526020017f6163746976655f646566690000000000000000000000000000000000000000008152506040518060400160405280601081526020017f4163746976652044654669205573657200000000000000000000000000000000815250620004ab60201b60201c565b620003306040518060400160405280600881526020017f6c6f775f7269736b0000000000000000000000000000000000000000000000008152506040518060400160405280600f81526020017f4c6f77205269736b2057616c6c65740000000000000000000000000000000000815250620004ab60201b60201c565b620003ac6040518060400160405280601181526020017f63726564656e7469616c5f686f6c6465720000000000000000000000000000008152506040518060400160405280601181526020017f43726564656e7469616c20486f6c646572000000000000000000000000000000815250620004ab60201b60201c565b620004286040518060400160405280600981526020017f74785f6d617374657200000000000000000000000000000000000000000000008152506040518060400160405280601281526020017f5472616e73616374696f6e204d61737465720000000000000000000000000000815250620004ab60201b60201c565b620004a46040518060400160405280600b81526020017f636f6e73697374656e63790000000000000000000000000000000000000000008152506040518060400160405280601481526020017f436f6e73697374656e6379204368616d70696f6e000000000000000000000000815250620004ab60201b60201c565b5062000b48565b600582604051620004bd91906200074c565b908152602001604051809103902060009054906101000a900460ff166200058a57600482908060018154018082558091505060019003906000526020600020016000909190919091509081620005149190620009d4565b5060016005836040516200052991906200074c565b908152602001604051809103902060006101000a81548160ff0219169083151502179055507f4988ee915c4a4cd5ca3fe16a7f308d3c7c52a738befdd7a197be7434272d295b82826040516200058192919062000b0d565b60405180910390a15b5050565b600080fd5b600073ffffffffffffffffffffffffffffffffffffffff82169050919050565b6000620005c08262000593565b9050919050565b620005d281620005b3565b8114620005de57600080fd5b50565b600081519050620005f281620005c7565b92915050565b6000602082840312156200061157620006106200058e565b5b60006200062184828501620005e1565b91505092915050565b600082825260208201905092915050565b7f547275737453636f726552656769737472793a20696e697469616c206f776e6560008201527f72206973207a65726f2061646472657373000000000000000000000000000000602082015250565b6000620006996031836200062a565b9150620006a6826200063b565b604082019050919050565b60006020820190508181036000830152620006cc816200068a565b9050919050565b600081519050919050565b600081905092915050565b60005b8381101562000709578082015181840152602081019050620006ec565b60008484015250505050565b60006200072282620006d3565b6200072e8185620006de565b935062000740818560208601620006e9565b80840191505092915050565b60006200075a828462000715565b915081905092915050565b7f4e487b7100000000000000000000000000000000000000000000000000000000600052604160045260246000fd5b7f4e487b7100000000000000000000000000000000000000000000000000000000600052602260045260246000fd5b60006002820490506001821680620007dc57607f821691505b602082108103620007f257620007f162000794565b5b50919050565b60008190508160005260206000209050919050565b60006020601f8301049050919050565b600082821b905092915050565b6000600883026200085c7fffffffffffffffffffffffffffffffffffffffffffffffffffffffffffffffff826200081d565b6200086886836200081d565b95508019841693508086168417925050509392505050565b6000819050919050565b6000819050919050565b6000620008b5620008af620008a98462000880565b6200088a565b62000880565b9050919050565b6000819050919050565b620008d18362000894565b620008e9620008e082620008bc565b8484546200082a565b825550505050565b600090565b62000900620008f1565b6200090d818484620008c6565b505050565b5b81811015620009355762000929600082620008f6565b60018101905062000913565b5050565b601f82111562000984576200094e81620007f8565b62000959846200080d565b8101602085101562000969578190505b6200098162000978856200080d565b83018262000912565b50505b505050565b600082821c905092915050565b6000620009a96000198460080262000989565b1980831691505092915050565b6000620009c4838362000996565b9150826002028217905092915050565b620009df82620006d3565b67ffffffffffffffff811115620009fb57620009fa62000765565b5b62000a078254620007c3565b62000a1482828562000939565b600060209050601f83116001811462000a4c576000841562000a37578287015190505b62000a438582620009b6565b86555062000ab3565b601f19841662000a5c86620007f8565b60005b8281101562000a865784890151825560018201915060208501945060208101905062000a5f565b8683101562000aa6578489015162000aa2601f89168262000996565b8355505b6001600288020188555050505b505050505050565b6000601f19601f8301169050919050565b600062000ad982620006d3565b62000ae581856200062a565b935062000af7818560208601620006e9565b62000b028162000abb565b840191505092915050565b6000604082019050818103600083015262000b29818562000acc565b9050818103602083015262000b3f818462000acc565b90509392505050565b6135898062000b586000396000f3fe608060405234801561001057600080fd5b50600436106101365760003560e01c80638da5cb5b116100b8578063d06c69981161007c578063d06c699814610375578063d47875d0146103a9578063ee302cbe146103d9578063f2fde38b146103f5578063f731fa0f14610411578063ffa1ad741461044157610136565b80638da5cb5b146102bd5780638e31efb8146102db578063b13c1e3c1461030b578063c03466be14610327578063c7e583b11461034557610136565b806331ba1966116100ff57806331ba1966146101f557806333f0ecfd146102255780633fa8954c14610255578063436693d51461028557806380197854146102a157610136565b80626296791461013b578063107b70fa1461015757806312df0fc41461018757806313b72488146101bb57806323affc5e146101d7575b600080fd5b610155600480360381019061015091906121e7565b61045f565b005b610171600480360381019061016c9190612279565b610617565b60405161017e91906122f4565b60405180910390f35b6101a1600480360381019061019c91906121e7565b610690565b6040516101b29594939291906123c7565b60405180910390f35b6101d560048036038101906101d09190612428565b6107f6565b005b6101df61091c565b6040516101ec91906124a9565b60405180910390f35b61020f600480360381019061020a91906121e7565b610922565b60405161021c91906122f4565b60405180910390f35b61023f600480360381019061023a9190612279565b6109ce565b60405161024c91906125b0565b60405180910390f35b61026f600480360381019061026a91906121e7565b610c22565b60405161027c919061265e565b60405180910390f35b61029f600480360381019061029a91906121e7565b610e09565b005b6102bb60048036038101906102b691906126ac565b611030565b005b6102c5611429565b6040516102d29190612753565b60405180910390f35b6102f560048036038101906102f0919061289e565b61144d565b60405161030291906122f4565b60405180910390f35b610325600480360381019061032091906128e7565b611483565b005b61032f6117f9565b60405161033c9190612a72565b60405180910390f35b61035f600480360381019061035a9190612a94565b6118d2565b60405161036c9190612ac1565b60405180910390f35b61038f600480360381019061038a9190612ae3565b61197e565b6040516103a0959493929190612b3f565b60405180910390f35b6103c360048036038101906103be91906121e7565b611b7c565b6040516103d091906124a9565b60405180910390f35b6103f360048036038101906103ee9190612279565b611bc8565b005b61040f600480360381019061040a91906121e7565b611e8c565b005b61042b600480360381019061042691906121e7565b611fcc565b60405161043891906122f4565b60405180910390f35b610449611fec565b6040516104569190612ac1565b60405180910390f35b60008054906101000a900473ffffffffffffffffffffffffffffffffffffffff1673ffffffffffffffffffffffffffffffffffffffff163373ffffffffffffffffffffffffffffffffffffffff16146104ed576040517f08c379a00000000000000000000000000000000000000000000000000000000081526004016104e490612c19565b60405180910390fd5b600160008273ffffffffffffffffffffffffffffffffffffffff1673ffffffffffffffffffffffffffffffffffffffff16815260200190815260200160002060009054906101000a900460ff16610579576040517f08c379a000000000000000000000000000000000000000000000000000000000815260040161057090612cab565b60405180910390fd5b6000600160008373ffffffffffffffffffffffffffffffffffffffff1673ffffffffffffffffffffffffffffffffffffffff16815260200190815260200160002060006101000a81548160ff0219169083151502179055508073ffffffffffffffffffffffffffffffffffffffff167f95a4c2ae425bb769549aa1a911911ff57c17ae811ae8c8962d0b9746fcb1539760405160405180910390a250565b6000600360008573ffffffffffffffffffffffffffffffffffffffff1673ffffffffffffffffffffffffffffffffffffffff1681526020019081526020016000208383604051610668929190612cfb565b908152602001604051809103902060030160009054906101000a900460ff1690509392505050565b60026020528060005260406000206000915090508060000154908060010180546106b990612d43565b80601f01602080910402602001604051908101604052809291908181526020018280546106e590612d43565b80156107325780601f1061070757610100808354040283529160200191610732565b820191906000526020600020905b81548152906001019060200180831161071557829003601f168201915b5050505050908060020160009054906101000a900473ffffffffffffffffffffffffffffffffffffffff169080600301549080600401805461077390612d43565b80601f016020809104026020016040519081016040528092919081815260200182805461079f90612d43565b80156107ec5780601f106107c1576101008083540402835291602001916107ec565b820191906000526020600020905b8154815290600101906020018083116107cf57829003601f168201915b5050505050905085565b60008054906101000a900473ffffffffffffffffffffffffffffffffffffffff1673ffffffffffffffffffffffffffffffffffffffff163373ffffffffffffffffffffffffffffffffffffffff1614610884576040517f08c379a000000000000000000000000000000000000000000000000000000000815260040161087b90612c19565b60405180910390fd5b61091684848080601f016020809104026020016040519081016040528093929190818152602001838380828437600081840152601f19601f8201169050808301925050505050505083838080601f016020809104026020016040519081016040528093929190818152602001838380828437600081840152601f19601f82011690508083019250505050505050612025565b50505050565b60065481565b6000600160008373ffffffffffffffffffffffffffffffffffffffff1673ffffffffffffffffffffffffffffffffffffffff16815260200190815260200160002060009054906101000a900460ff16806109c7575060008054906101000a900473ffffffffffffffffffffffffffffffffffffffff1673ffffffffffffffffffffffffffffffffffffffff168273ffffffffffffffffffffffffffffffffffffffff16145b9050919050565b6109d66120ff565b600360008573ffffffffffffffffffffffffffffffffffffffff1673ffffffffffffffffffffffffffffffffffffffff1681526020019081526020016000208383604051610a25929190612cfb565b90815260200160405180910390206040518060a0016040529081600082018054610a4e90612d43565b80601f0160208091040260200160405190810160405280929190818152602001828054610a7a90612d43565b8015610ac75780601f10610a9c57610100808354040283529160200191610ac7565b820191906000526020600020905b815481529060010190602001808311610aaa57829003601f168201915b50505050508152602001600182018054610ae090612d43565b80601f0160208091040260200160405190810160405280929190818152602001828054610b0c90612d43565b8015610b595780601f10610b2e57610100808354040283529160200191610b59565b820191906000526020600020905b815481529060010190602001808311610b3c57829003601f168201915b50505050508152602001600282018054610b7290612d43565b80601f0160208091040260200160405190810160405280929190818152602001828054610b9e90612d43565b8015610beb5780601f10610bc057610100808354040283529160200191610beb565b820191906000526020600020905b815481529060010190602001808311610bce57829003601f168201915b505050505081526020016003820160009054906101000a900460ff1615151515815260200160048201548152505090509392505050565b610c2a612130565b600260008373ffffffffffffffffffffffffffffffffffffffff1673ffffffffffffffffffffffffffffffffffffffff1681526020019081526020016000206040518060a001604052908160008201548152602001600182018054610c8e90612d43565b80601f0160208091040260200160405190810160405280929190818152602001828054610cba90612d43565b8015610d075780601f10610cdc57610100808354040283529160200191610d07565b820191906000526020600020905b815481529060010190602001808311610cea57829003601f168201915b505050505081526020016002820160009054906101000a900473ffffffffffffffffffffffffffffffffffffffff1673ffffffffffffffffffffffffffffffffffffffff1673ffffffffffffffffffffffffffffffffffffffff16815260200160038201548152602001600482018054610d8090612d43565b80601f0160208091040260200160405190810160405280929190818152602001828054610dac90612d43565b8015610df95780601f10610dce57610100808354040283529160200191610df9565b820191906000526020600020905b815481529060010190602001808311610ddc57829003601f168201915b5050505050815250509050919050565b60008054906101000a900473ffffffffffffffffffffffffffffffffffffffff1673ffffffffffffffffffffffffffffffffffffffff163373ffffffffffffffffffffffffffffffffffffffff1614610e97576040517f08c379a0000000000000000000000000000000000000000000000000000000008152600401610e8e90612c19565b60405180910390fd5b600073ffffffffffffffffffffffffffffffffffffffff168173ffffffffffffffffffffffffffffffffffffffff1603610f06576040517f08c379a0000000000000000000000000000000000000000000000000000000008152600401610efd90612de6565b60405180910390fd5b600160008273ffffffffffffffffffffffffffffffffffffffff1673ffffffffffffffffffffffffffffffffffffffff16815260200190815260200160002060009054906101000a900460ff1615610f93576040517f08c379a0000000000000000000000000000000000000000000000000000000008152600401610f8a90612e78565b60405180910390fd5b60018060008373ffffffffffffffffffffffffffffffffffffffff1673ffffffffffffffffffffffffffffffffffffffff16815260200190815260200160002060006101000a81548160ff0219169083151502179055508073ffffffffffffffffffffffffffffffffffffffff167f8b4006ca14f23d4e7aa8d120d1ab7c3761d650eefac1a5d6732dbea94b54ea2460405160405180910390a250565b600160003373ffffffffffffffffffffffffffffffffffffffff1673ffffffffffffffffffffffffffffffffffffffff16815260200190815260200160002060009054906101000a900460ff16806110d3575060008054906101000a900473ffffffffffffffffffffffffffffffffffffffff1673ffffffffffffffffffffffffffffffffffffffff163373ffffffffffffffffffffffffffffffffffffffff16145b611112576040517f08c379a000000000000000000000000000000000000000000000000000000000815260040161110990612f0a565b60405180910390fd5b600073ffffffffffffffffffffffffffffffffffffffff168673ffffffffffffffffffffffffffffffffffffffff1603611181576040517f08c379a000000000000000000000000000000000000000000000000000000000815260040161117890612f9c565b60405180910390fd5b60648511156111c5576040517f08c379a00000000000000000000000000000000000000000000000000000000081526004016111bc9061302e565b60405180910390fd5b6000600260008873ffffffffffffffffffffffffffffffffffffffff1673ffffffffffffffffffffffffffffffffffffffff168152602001908152602001600020600301540361122857600660008154809291906112229061307d565b91905055505b6040518060a0016040528086815260200185858080601f016020809104026020016040519081016040528093929190818152602001838380828437600081840152601f19601f8201169050808301925050505050505081526020013373ffffffffffffffffffffffffffffffffffffffff16815260200142815260200183838080601f016020809104026020016040519081016040528093929190818152602001838380828437600081840152601f19601f82011690508083019250505050505050815250600260008873ffffffffffffffffffffffffffffffffffffffff1673ffffffffffffffffffffffffffffffffffffffff16815260200190815260200160002060008201518160000155602082015181600101908161134b9190613271565b5060408201518160020160006101000a81548173ffffffffffffffffffffffffffffffffffffffff021916908373ffffffffffffffffffffffffffffffffffffffff1602179055506060820151816003015560808201518160040190816113b29190613271565b509050503373ffffffffffffffffffffffffffffffffffffffff168673ffffffffffffffffffffffffffffffffffffffff167f49169ebf2146aabc316fd8d8db652be505255c7bf69b1110f202ba63f8b01245878787426040516114199493929190613370565b60405180910390a3505050505050565b60008054906101000a900473ffffffffffffffffffffffffffffffffffffffff1681565b6005818051602081018201805184825260208301602085012081835280955050505050506000915054906101000a900460ff1681565b600160003373ffffffffffffffffffffffffffffffffffffffff1673ffffffffffffffffffffffffffffffffffffffff16815260200190815260200160002060009054906101000a900460ff1680611526575060008054906101000a900473ffffffffffffffffffffffffffffffffffffffff1673ffffffffffffffffffffffffffffffffffffffff163373ffffffffffffffffffffffffffffffffffffffff16145b611565576040517f08c379a000000000000000000000000000000000000000000000000000000000815260040161155c90612f0a565b60405180910390fd5b600073ffffffffffffffffffffffffffffffffffffffff168773ffffffffffffffffffffffffffffffffffffffff16036115d4576040517f08c379a00000000000000000000000000000000000000000000000000000000081526004016115cb90612f9c565b60405180910390fd5b6040518060a0016040528087878080601f016020809104026020016040519081016040528093929190818152602001838380828437600081840152601f19601f82011690508083019250505050505050815260200185858080601f016020809104026020016040519081016040528093929190818152602001838380828437600081840152601f19601f82011690508083019250505050505050815260200183838080601f016020809104026020016040519081016040528093929190818152602001838380828437600081840152601f19601f82011690508083019250505050505050815260200160011515815260200142815250600360008973ffffffffffffffffffffffffffffffffffffffff1673ffffffffffffffffffffffffffffffffffffffff1681526020019081526020016000208787604051611719929190612cfb565b9081526020016040518091039020600082015181600001908161173c9190613271565b5060208201518160010190816117529190613271565b5060408201518160020190816117689190613271565b5060608201518160030160006101000a81548160ff021916908315150217905550608082015181600401559050508673ffffffffffffffffffffffffffffffffffffffff167f6b2b780a629aeb9a5211236e82d09ad4c6c10efee35f9e6ba3dc5e0aef39e3cd878787878787426040516117e897969594939291906133b0565b60405180910390a250505050505050565b60606004805480602002602001604051908101604052809291908181526020016000905b828210156118c957838290600052602060002001805461183c90612d43565b80601f016020809104026020016040519081016040528092919081815260200182805461186890612d43565b80156118b55780601f1061188a576101008083540402835291602001916118b5565b820191906000526020600020905b81548152906001019060200180831161189857829003601f168201915b50505050508152602001906001019061181d565b50505050905090565b600481815481106118e257600080fd5b9060005260206000200160009150905080546118fd90612d43565b80601f016020809104026020016040519081016040528092919081815260200182805461192990612d43565b80156119765780601f1061194b57610100808354040283529160200191611976565b820191906000526020600020905b81548152906001019060200180831161195957829003601f168201915b505050505081565b600360205281600052604060002081805160208101820180518482526020830160208501208183528095505050505050600091509150508060000180546119c490612d43565b80601f01602080910402602001604051908101604052809291908181526020018280546119f090612d43565b8015611a3d5780601f10611a1257610100808354040283529160200191611a3d565b820191906000526020600020905b815481529060010190602001808311611a2057829003601f168201915b505050505090806001018054611a5290612d43565b80601f0160208091040260200160405190810160405280929190818152602001828054611a7e90612d43565b8015611acb5780601f10611aa057610100808354040283529160200191611acb565b820191906000526020600020905b815481529060010190602001808311611aae57829003601f168201915b505050505090806002018054611ae090612d43565b80601f0160208091040260200160405190810160405280929190818152602001828054611b0c90612d43565b8015611b595780601f10611b2e57610100808354040283529160200191611b59565b820191906000526020600020905b815481529060010190602001808311611b3c57829003601f168201915b5050505050908060030160009054906101000a900460ff16908060040154905085565b6000600260008373ffffffffffffffffffffffffffffffffffffffff1673ffffffffffffffffffffffffffffffffffffffff168152602001908152602001600020600001549050919050565b600160003373ffffffffffffffffffffffffffffffffffffffff1673ffffffffffffffffffffffffffffffffffffffff16815260200190815260200160002060009054906101000a900460ff1680611c6b575060008054906101000a900473ffffffffffffffffffffffffffffffffffffffff1673ffffffffffffffffffffffffffffffffffffffff163373ffffffffffffffffffffffffffffffffffffffff16145b611caa576040517f08c379a0000000000000000000000000000000000000000000000000000000008152600401611ca190612f0a565b60405180910390fd5b600360008473ffffffffffffffffffffffffffffffffffffffff1673ffffffffffffffffffffffffffffffffffffffff1681526020019081526020016000208282604051611cf9929190612cfb565b908152602001604051809103902060030160009054906101000a900460ff16611d57576040517f08c379a0000000000000000000000000000000000000000000000000000000008152600401611d4e90613482565b60405180910390fd5b6000600360008573ffffffffffffffffffffffffffffffffffffffff1673ffffffffffffffffffffffffffffffffffffffff1681526020019081526020016000208383604051611da8929190612cfb565b908152602001604051809103902060030160006101000a81548160ff02191690831515021790555042600360008573ffffffffffffffffffffffffffffffffffffffff1673ffffffffffffffffffffffffffffffffffffffff1681526020019081526020016000208383604051611e20929190612cfb565b9081526020016040518091039020600401819055508273ffffffffffffffffffffffffffffffffffffffff167ffe07eb2a926fd2037400d22baa8f10b836db8ee73407f1a82fdb96bc7d14c823838342604051611e7f939291906134a2565b60405180910390a2505050565b60008054906101000a900473ffffffffffffffffffffffffffffffffffffffff1673ffffffffffffffffffffffffffffffffffffffff163373ffffffffffffffffffffffffffffffffffffffff1614611f1a576040517f08c379a0000000000000000000000000000000000000000000000000000000008152600401611f1190612c19565b60405180910390fd5b600073ffffffffffffffffffffffffffffffffffffffff168173ffffffffffffffffffffffffffffffffffffffff1603611f89576040517f08c379a0000000000000000000000000000000000000000000000000000000008152600401611f8090612de6565b60405180910390fd5b806000806101000a81548173ffffffffffffffffffffffffffffffffffffffff021916908373ffffffffffffffffffffffffffffffffffffffff16021790555050565b60016020528060005260406000206000915054906101000a900460ff1681565b6040518060400160405280600581526020017f312e302e3000000000000000000000000000000000000000000000000000000081525081565b6005826040516120359190613505565b908152602001604051809103902060009054906101000a900460ff166120fb576004829080600181540180825580915050600190039060005260206000200160009091909190915090816120899190613271565b50600160058360405161209c9190613505565b908152602001604051809103902060006101000a81548160ff0219169083151502179055507f4988ee915c4a4cd5ca3fe16a7f308d3c7c52a738befdd7a197be7434272d295b82826040516120f292919061351c565b60405180910390a15b5050565b6040518060a00160405280606081526020016060815260200160608152602001600015158152602001600081525090565b6040518060a001604052806000815260200160608152602001600073ffffffffffffffffffffffffffffffffffffffff16815260200160008152602001606081525090565b6000604051905090565b600080fd5b600080fd5b600073ffffffffffffffffffffffffffffffffffffffff82169050919050565b60006121b482612189565b9050919050565b6121c4816121a9565b81146121cf57600080fd5b50565b6000813590506121e1816121bb565b92915050565b6000602082840312156121fd576121fc61217f565b5b600061220b848285016121d2565b91505092915050565b600080fd5b600080fd5b600080fd5b60008083601f84011261223957612238612214565b5b8235905067ffffffffffffffff81111561225657612255612219565b5b6020830191508360018202830111156122725761227161221e565b5b9250929050565b6000806000604084860312156122925761229161217f565b5b60006122a0868287016121d2565b935050602084013567ffffffffffffffff8111156122c1576122c0612184565b5b6122cd86828701612223565b92509250509250925092565b60008115159050919050565b6122ee816122d9565b82525050565b600060208201905061230960008301846122e5565b92915050565b6000819050919050565b6123228161230f565b82525050565b600081519050919050565b600082825260208201905092915050565b60005b83811015612362578082015181840152602081019050612347565b60008484015250505050565b6000601f19601f8301169050919050565b600061238a82612328565b6123948185612333565b93506123a4818560208601612344565b6123ad8161236e565b840191505092915050565b6123c1816121a9565b82525050565b600060a0820190506123dc6000830188612319565b81810360208301526123ee818761237f565b90506123fd60408301866123b8565b61240a6060830185612319565b818103608083015261241c818461237f565b90509695505050505050565b600080600080604085870312156124425761244161217f565b5b600085013567ffffffffffffffff8111156124605761245f612184565b5b61246c87828801612223565b9450945050602085013567ffffffffffffffff81111561248f5761248e612184565b5b61249b87828801612223565b925092505092959194509250565b60006020820190506124be6000830184612319565b92915050565b600082825260208201905092915050565b60006124e082612328565b6124ea81856124c4565b93506124fa818560208601612344565b6125038161236e565b840191505092915050565b612517816122d9565b82525050565b6125268161230f565b82525050565b600060a083016000830151848203600086015261254982826124d5565b9150506020830151848203602086015261256382826124d5565b9150506040830151848203604086015261257d82826124d5565b9150506060830151612592606086018261250e565b5060808301516125a5608086018261251d565b508091505092915050565b600060208201905081810360008301526125ca818461252c565b905092915050565b6125db816121a9565b82525050565b600060a0830160008301516125f9600086018261251d565b506020830151848203602086015261261182826124d5565b915050604083015161262660408601826125d2565b506060830151612639606086018261251d565b506080830151848203608086015261265182826124d5565b9150508091505092915050565b6000602082019050818103600083015261267881846125e1565b905092915050565b6126898161230f565b811461269457600080fd5b50565b6000813590506126a681612680565b92915050565b600080600080600080608087890312156126c9576126c861217f565b5b60006126d789828a016121d2565b96505060206126e889828a01612697565b955050604087013567ffffffffffffffff81111561270957612708612184565b5b61271589828a01612223565b9450945050606087013567ffffffffffffffff81111561273857612737612184565b5b61274489828a01612223565b92509250509295509295509295565b600060208201905061276860008301846123b8565b92915050565b600080fd5b7f4e487b7100000000000000000000000000000000000000000000000000000000600052604160045260246000fd5b6127ab8261236e565b810181811067ffffffffffffffff821117156127ca576127c9612773565b5b80604052505050565b60006127dd612175565b90506127e982826127a2565b919050565b600067ffffffffffffffff82111561280957612808612773565b5b6128128261236e565b9050602081019050919050565b82818337600083830152505050565b600061284161283c846127ee565b6127d3565b90508281526020810184848401111561285d5761285c61276e565b5b61286884828561281f565b509392505050565b600082601f83011261288557612884612214565b5b813561289584826020860161282e565b91505092915050565b6000602082840312156128b4576128b361217f565b5b600082013567ffffffffffffffff8111156128d2576128d1612184565b5b6128de84828501612870565b91505092915050565b60008060008060008060006080888a0312156129065761290561217f565b5b60006129148a828b016121d2565b975050602088013567ffffffffffffffff81111561293557612934612184565b5b6129418a828b01612223565b9650965050604088013567ffffffffffffffff81111561296457612963612184565b5b6129708a828b01612223565b9450945050606088013567ffffffffffffffff81111561299357612992612184565b5b61299f8a828b01612223565b925092505092959891949750929550565b600081519050919050565b600082825260208201905092915050565b6000819050602082019050919050565b60006129e883836124d5565b905092915050565b6000602082019050919050565b6000612a08826129b0565b612a1281856129bb565b935083602082028501612a24856129cc565b8060005b85811015612a605784840389528151612a4185826129dc565b9450612a4c836129f0565b925060208a01995050600181019050612a28565b50829750879550505050505092915050565b60006020820190508181036000830152612a8c81846129fd565b905092915050565b600060208284031215612aaa57612aa961217f565b5b6000612ab884828501612697565b91505092915050565b60006020820190508181036000830152612adb818461237f565b905092915050565b60008060408385031215612afa57612af961217f565b5b6000612b08858286016121d2565b925050602083013567ffffffffffffffff811115612b2957612b28612184565b5b612b3585828601612870565b9150509250929050565b600060a0820190508181036000830152612b59818861237f565b90508181036020830152612b6d818761237f565b90508181036040830152612b81818661237f565b9050612b9060608301856122e5565b612b9d6080830184612319565b9695505050505050565b7f547275737453636f726552656769737472793a2063616c6c6572206973206e6f60008201527f74206f776e657200000000000000000000000000000000000000000000000000602082015250565b6000612c03602783612333565b9150612c0e82612ba7565b604082019050919050565b60006020820190508181036000830152612c3281612bf6565b9050919050565b7f547275737453636f726552656769737472793a206e6f7420617574686f72697a60008201527f6564000000000000000000000000000000000000000000000000000000000000602082015250565b6000612c95602283612333565b9150612ca082612c39565b604082019050919050565b60006020820190508181036000830152612cc481612c88565b9050919050565b600081905092915050565b6000612ce28385612ccb565b9350612cef83858461281f565b82840190509392505050565b6000612d08828486612cd6565b91508190509392505050565b7f4e487b7100000000000000000000000000000000000000000000000000000000600052602260045260246000fd5b60006002820490506001821680612d5b57607f821691505b602082108103612d6e57612d6d612d14565b5b50919050565b7f547275737453636f726552656769737472793a20696e76616c6964206164647260008201527f6573730000000000000000000000000000000000000000000000000000000000602082015250565b6000612dd0602383612333565b9150612ddb82612d74565b604082019050919050565b60006020820190508181036000830152612dff81612dc3565b9050919050565b7f547275737453636f726552656769737472793a20616c7265616479206175746860008201527f6f72697a65640000000000000000000000000000000000000000000000000000602082015250565b6000612e62602683612333565b9150612e6d82612e06565b604082019050919050565b60006020820190508181036000830152612e9181612e55565b9050919050565b7f547275737453636f726552656769737472793a2063616c6c6572206973206e6f60008201527f7420617574686f72697a65642069737375657200000000000000000000000000602082015250565b6000612ef4603383612333565b9150612eff82612e98565b604082019050919050565b60006020820190508181036000830152612f2381612ee7565b9050919050565b7f547275737453636f726552656769737472793a20696e76616c69642077616c6c60008201527f6574206164647265737300000000000000000000000000000000000000000000602082015250565b6000612f86602a83612333565b9150612f9182612f2a565b604082019050919050565b60006020820190508181036000830152612fb581612f79565b9050919050565b7f547275737453636f726552656769737472793a2073636f7265206d757374206260008201527f6520302d31303000000000000000000000000000000000000000000000000000602082015250565b6000613018602783612333565b915061302382612fbc565b604082019050919050565b600060208201905081810360008301526130478161300b565b9050919050565b7f4e487b7100000000000000000000000000000000000000000000000000000000600052601160045260246000fd5b60006130888261230f565b91507fffffffffffffffffffffffffffffffffffffffffffffffffffffffffffffffff82036130ba576130b961304e565b5b600182019050919050565b60008190508160005260206000209050919050565b60006020601f8301049050919050565b600082821b905092915050565b6000600883026131277fffffffffffffffffffffffffffffffffffffffffffffffffffffffffffffffff826130ea565b61313186836130ea565b95508019841693508086168417925050509392505050565b6000819050919050565b600061316e6131696131648461230f565b613149565b61230f565b9050919050565b6000819050919050565b61318883613153565b61319c61319482613175565b8484546130f7565b825550505050565b600090565b6131b16131a4565b6131bc81848461317f565b505050565b5b818110156131e0576131d56000826131a9565b6001810190506131c2565b5050565b601f821115613225576131f6816130c5565b6131ff846130da565b8101602085101561320e578190505b61322261321a856130da565b8301826131c1565b50505b505050565b600082821c905092915050565b60006132486000198460080261322a565b1980831691505092915050565b60006132618383613237565b9150826002028217905092915050565b61327a82612328565b67ffffffffffffffff81111561329357613292612773565b5b61329d8254612d43565b6132a88282856131e4565b600060209050601f8311600181146132db57600084156132c9578287015190505b6132d38582613255565b86555061333b565b601f1984166132e9866130c5565b60005b82811015613311578489015182556001820191506020850194506020810190506132ec565b8683101561332e578489015161332a601f891682613237565b8355505b6001600288020188555050505b505050505050565b600061334f8385612333565b935061335c83858461281f565b6133658361236e565b840190509392505050565b60006060820190506133856000830187612319565b8181036020830152613398818587613343565b90506133a76040830184612319565b95945050505050565b600060808201905081810360008301526133cb81898b613343565b905081810360208301526133e0818789613343565b905081810360408301526133f5818587613343565b90506134046060830184612319565b98975050505050505050565b7f547275737453636f726552656769737472793a206261646765206e6f7420656160008201527f726e656400000000000000000000000000000000000000000000000000000000602082015250565b600061346c602483612333565b915061347782613410565b604082019050919050565b6000602082019050818103600083015261349b8161345f565b9050919050565b600060408201905081810360008301526134bd818587613343565b90506134cc6020830184612319565b949350505050565b60006134df82612328565b6134e98185612ccb565b93506134f9818560208601612344565b80840191505092915050565b600061351182846134d4565b915081905092915050565b60006040820190508181036000830152613536818561237f565b9050818103602083015261354a818461237f565b9050939250505056fea26469706673582212209af5a47a4fe6bbed34a4680b37a9533111f110b202fa84e36c739586f541834d64736f6c63430008130033",
  "linkReferences": {},
  "deployedLinkReferences": {}
}